{
  "_format": "hh-sol-artifact-1",
  "contractName": "WavePortal",
  "sourceName": "contracts/WavePortal.sol",
  "abi": [
    {
      "inputs": [],
      "stateMutability": "payable",
      "type": "constructor"
    },
    {
      "anonymous": false,
      "inputs": [
        {
          "indexed": true,
          "internalType": "address",
          "name": "from",
          "type": "address"
        },
        {
          "indexed": false,
          "internalType": "uint256",
          "name": "timestamp",
          "type": "uint256"
        },
        {
          "indexed": false,
          "internalType": "bool",
          "name": "won",
          "type": "bool"
        }
      ],
      "name": "NewWave",
      "type": "event"
    },
    {
      "inputs": [],
      "name": "getAllWaves",
      "outputs": [
        {
          "components": [
            {
              "internalType": "address",
              "name": "waver",
              "type": "address"
            },
            {
              "internalType": "string",
              "name": "message",
              "type": "string"
            },
            {
              "internalType": "uint256",
              "name": "timestamp",
              "type": "uint256"
            },
            {
              "internalType": "bool",
              "name": "won",
              "type": "bool"
            }
          ],
          "internalType": "struct Wave[]",
          "name": "",
          "type": "tuple[]"
        }
      ],
      "stateMutability": "view",
      "type": "function"
    },
    {
      "inputs": [],
      "name": "getBalance",
      "outputs": [
        {
          "internalType": "uint256",
          "name": "",
          "type": "uint256"
        }
      ],
      "stateMutability": "view",
      "type": "function"
    },
    {
      "inputs": [],
      "name": "getChanceToWin",
      "outputs": [
        {
          "internalType": "uint256",
          "name": "",
          "type": "uint256"
        }
      ],
      "stateMutability": "view",
      "type": "function"
    },
    {
      "inputs": [],
      "name": "getPrizeAmount",
      "outputs": [
        {
          "internalType": "uint256",
          "name": "",
          "type": "uint256"
        }
      ],
      "stateMutability": "view",
      "type": "function"
    },
    {
      "inputs": [],
      "name": "getTotalWaves",
      "outputs": [
        {
          "internalType": "uint256",
          "name": "",
          "type": "uint256"
        }
      ],
      "stateMutability": "view",
      "type": "function"
    },
    {
      "inputs": [],
      "name": "getUniqueWavers",
      "outputs": [
        {
          "internalType": "uint256",
          "name": "",
          "type": "uint256"
        }
      ],
      "stateMutability": "view",
      "type": "function"
    },
    {
      "inputs": [
        {
          "internalType": "address",
          "name": "",
          "type": "address"
        }
      ],
      "name": "lastWavedAt",
      "outputs": [
        {
          "internalType": "uint256",
          "name": "",
          "type": "uint256"
        }
      ],
      "stateMutability": "view",
      "type": "function"
    },
    {
      "inputs": [
        {
          "internalType": "uint256",
          "name": "_chance",
          "type": "uint256"
        }
      ],
      "name": "setChanceToWin",
      "outputs": [],
      "stateMutability": "nonpayable",
      "type": "function"
    },
    {
      "inputs": [
        {
          "internalType": "uint256",
          "name": "_prizeAmount",
          "type": "uint256"
        }
      ],
      "name": "setPrizeAmount",
      "outputs": [],
      "stateMutability": "nonpayable",
      "type": "function"
    },
    {
      "inputs": [
        {
          "internalType": "string",
          "name": "_message",
          "type": "string"
        }
      ],
      "name": "wave",
      "outputs": [],
      "stateMutability": "nonpayable",
      "type": "function"
    }
  ],
  "bytecode": "0x6080604052600080556000600155655af3107a4000600655603260075533600260006101000a81548173ffffffffffffffffffffffffffffffffffffffff021916908373ffffffffffffffffffffffffffffffffffffffff160217905550606444426200006d919062000085565b620000799190620000ec565b60088190555062000182565b60006200009282620000e2565b91506200009f83620000e2565b9250827fffffffffffffffffffffffffffffffffffffffffffffffffffffffffffffffff03821115620000d757620000d662000124565b5b828201905092915050565b6000819050919050565b6000620000f982620000e2565b91506200010683620000e2565b92508262000119576200011862000153565b5b828206905092915050565b7f4e487b7100000000000000000000000000000000000000000000000000000000600052601160045260246000fd5b7f4e487b7100000000000000000000000000000000000000000000000000000000600052601260045260246000fd5b6112d380620001926000396000f3fe608060405234801561001057600080fd5b506004361061009e5760003560e01c80639a2cdc08116100665780639a2cdc0814610133578063a42a466314610151578063bd43a90814610181578063d2bb432e1461019f578063ecca9c2e146101bd5761009e565b806312065fe0146100a357806330ffbf92146100c1578063449d46c0146100df57806351386532146100fb57806382de071014610117575b600080fd5b6100ab6101db565b6040516100b89190610f00565b60405180910390f35b6100c96101e3565b6040516100d69190610f00565b60405180910390f35b6100f960048036038101906100f49190610a37565b6101ed565b005b61011560048036038101906101109190610a78565b610429565b005b610131600480360381019061012c9190610a78565b6104c3565b005b61013b61056b565b6040516101489190610f00565b60405180910390f35b61016b60048036038101906101669190610a0e565b610574565b6040516101789190610f00565b60405180910390f35b61018961058c565b6040516101969190610e3e565b60405180910390f35b6101a76106f8565b6040516101b49190610f00565b60405180910390f35b6101c5610792565b6040516101d29190610f00565b60405180910390f35b600047905090565b6000600154905090565b42601e600960003373ffffffffffffffffffffffffffffffffffffffff1673ffffffffffffffffffffffffffffffffffffffff1681526020019081526020016000205461023a9190611016565b1061027a576040517f08c379a000000000000000000000000000000000000000000000000000000000815260040161027190610ec0565b60405180910390fd5b42600960003373ffffffffffffffffffffffffffffffffffffffff1673ffffffffffffffffffffffffffffffffffffffff1681526020019081526020016000208190555060006102c861079c565b9050600560405180608001604052803373ffffffffffffffffffffffffffffffffffffffff168152602001848152602001428152602001831515815250908060018154018082558091505060019003906000526020600020906004020160009091909190915060008201518160000160006101000a81548173ffffffffffffffffffffffffffffffffffffffff021916908373ffffffffffffffffffffffffffffffffffffffff16021790555060208201518160010190805190602001906103919291906108d9565b506040820151816002015560608201518160030160006101000a81548160ff02191690831515021790555050506000808154809291906103d090611128565b91905055503373ffffffffffffffffffffffffffffffffffffffff167f671379add458c43bbaf28f533ff7772335643e160ea1e1946d29534ce0130e4c428360405161041d929190610f1b565b60405180910390a25050565b600260009054906101000a900473ffffffffffffffffffffffffffffffffffffffff1673ffffffffffffffffffffffffffffffffffffffff163373ffffffffffffffffffffffffffffffffffffffff16146104b9576040517f08c379a00000000000000000000000000000000000000000000000000000000081526004016104b090610ee0565b60405180910390fd5b8060068190555050565b600260009054906101000a900473ffffffffffffffffffffffffffffffffffffffff1673ffffffffffffffffffffffffffffffffffffffff163373ffffffffffffffffffffffffffffffffffffffff1614610553576040517f08c379a000000000000000000000000000000000000000000000000000000000815260040161054a90610ea0565b60405180910390fd5b606481111561056157600080fd5b8060078190555050565b60008054905090565b60096020528060005260406000206000915090505481565b60606005805480602002602001604051908101604052809291908181526020016000905b828210156106ef57838290600052602060002090600402016040518060800160405290816000820160009054906101000a900473ffffffffffffffffffffffffffffffffffffffff1673ffffffffffffffffffffffffffffffffffffffff1673ffffffffffffffffffffffffffffffffffffffff168152602001600182018054610639906110f6565b80601f0160208091040260200160405190810160405280929190818152602001828054610665906110f6565b80156106b25780601f10610687576101008083540402835291602001916106b2565b820191906000526020600020905b81548152906001019060200180831161069557829003601f168201915b50505050508152602001600282015481526020016003820160009054906101000a900460ff161515151581525050815260200190600101906105b0565b50505050905090565b6000600260009054906101000a900473ffffffffffffffffffffffffffffffffffffffff1673ffffffffffffffffffffffffffffffffffffffff163373ffffffffffffffffffffffffffffffffffffffff161461078a576040517f08c379a000000000000000000000000000000000000000000000000000000000815260040161078190610ea0565b60405180910390fd5b600754905090565b6000600654905090565b6000606460085442446107af9190611016565b6107b99190611016565b6107c39190611171565b600881905550600754600854116108d157476006541115610819576040517f08c379a000000000000000000000000000000000000000000000000000000000815260040161081090610e60565b60405180910390fd5b60003373ffffffffffffffffffffffffffffffffffffffff1660065460405161084190610e29565b60006040518083038185875af1925050503d806000811461087e576040519150601f19603f3d011682016040523d82523d6000602084013e610883565b606091505b50509050806108c7576040517f08c379a00000000000000000000000000000000000000000000000000000000081526004016108be90610e80565b60405180910390fd5b60019150506108d6565b600090505b90565b8280546108e5906110f6565b90600052602060002090601f016020900481019282610907576000855561094e565b82601f1061092057805160ff191683800117855561094e565b8280016001018555821561094e579182015b8281111561094d578251825591602001919060010190610932565b5b50905061095b919061095f565b5090565b5b80821115610978576000816000905550600101610960565b5090565b600061098f61098a84610f75565b610f44565b9050828152602081018484840111156109a757600080fd5b6109b28482856110b4565b509392505050565b6000813590506109c98161126f565b92915050565b600082601f8301126109e057600080fd5b81356109f084826020860161097c565b91505092915050565b600081359050610a0881611286565b92915050565b600060208284031215610a2057600080fd5b6000610a2e848285016109ba565b91505092915050565b600060208284031215610a4957600080fd5b600082013567ffffffffffffffff811115610a6357600080fd5b610a6f848285016109cf565b91505092915050565b600060208284031215610a8a57600080fd5b6000610a98848285016109f9565b91505092915050565b6000610aad8383610da8565b905092915050565b610abe8161106c565b82525050565b6000610acf82610fb5565b610ad98185610fd8565b935083602082028501610aeb85610fa5565b8060005b85811015610b275784840389528151610b088582610aa1565b9450610b1383610fcb565b925060208a01995050600181019050610aef565b50829750879550505050505092915050565b610b428161107e565b82525050565b610b518161107e565b82525050565b6000610b6282610fc0565b610b6c8185610ff4565b9350610b7c8185602086016110c3565b610b858161125e565b840191505092915050565b6000610b9d603483611005565b91507f547279696e6720746f207769746864726177206d6f7265206d6f6e657920746860008301527f616e2074686520636f6e7472616374206861732e0000000000000000000000006020830152604082019050919050565b6000610c03602783611005565b91507f4661696c656420746f207769746864726177206d6f6e65792066726f6d20636f60008301527f6e74726163742e000000000000000000000000000000000000000000000000006020830152604082019050919050565b6000610c69602383611005565b91507f43616e7420736574206368616e636520746f2077696e206966206e6f74206f7760008301527f6e657200000000000000000000000000000000000000000000000000000000006020830152604082019050919050565b6000610ccf602983611005565b91507f4d7573742077616974203330207365636f6e6473206265666f7265207761766960008301527f6e6720616761696e2e00000000000000000000000000000000000000000000006020830152604082019050919050565b6000610d35600083610fe9565b9150600082019050919050565b6000610d4f602983611005565b91507f4f6e6c7920746865206f776e65722063616e206564697420746865207072697a60008301527f6520616d6f756e742e00000000000000000000000000000000000000000000006020830152604082019050919050565b6000608083016000830151610dc06000860182610ab5565b5060208301518482036020860152610dd88282610b57565b9150506040830151610ded6040860182610e0b565b506060830151610e006060860182610b39565b508091505092915050565b610e14816110aa565b82525050565b610e23816110aa565b82525050565b6000610e3482610d28565b9150819050919050565b60006020820190508181036000830152610e588184610ac4565b905092915050565b60006020820190508181036000830152610e7981610b90565b9050919050565b60006020820190508181036000830152610e9981610bf6565b9050919050565b60006020820190508181036000830152610eb981610c5c565b9050919050565b60006020820190508181036000830152610ed981610cc2565b9050919050565b60006020820190508181036000830152610ef981610d42565b9050919050565b6000602082019050610f156000830184610e1a565b92915050565b6000604082019050610f306000830185610e1a565b610f3d6020830184610b48565b9392505050565b6000604051905081810181811067ffffffffffffffff82111715610f6b57610f6a61122f565b5b8060405250919050565b600067ffffffffffffffff821115610f9057610f8f61122f565b5b601f19601f8301169050602081019050919050565b6000819050602082019050919050565b600081519050919050565b600081519050919050565b6000602082019050919050565b600082825260208201905092915050565b600081905092915050565b600082825260208201905092915050565b600082825260208201905092915050565b6000611021826110aa565b915061102c836110aa565b9250827fffffffffffffffffffffffffffffffffffffffffffffffffffffffffffffffff03821115611061576110606111a2565b5b828201905092915050565b60006110778261108a565b9050919050565b60008115159050919050565b600073ffffffffffffffffffffffffffffffffffffffff82169050919050565b6000819050919050565b82818337600083830152505050565b60005b838110156110e15780820151818401526020810190506110c6565b838111156110f0576000848401525b50505050565b6000600282049050600182168061110e57607f821691505b6020821081141561112257611121611200565b5b50919050565b6000611133826110aa565b91507fffffffffffffffffffffffffffffffffffffffffffffffffffffffffffffffff821415611166576111656111a2565b5b600182019050919050565b600061117c826110aa565b9150611187836110aa565b925082611197576111966111d1565b5b828206905092915050565b7f4e487b7100000000000000000000000000000000000000000000000000000000600052601160045260246000fd5b7f4e487b7100000000000000000000000000000000000000000000000000000000600052601260045260246000fd5b7f4e487b7100000000000000000000000000000000000000000000000000000000600052602260045260246000fd5b7f4e487b7100000000000000000000000000000000000000000000000000000000600052604160045260246000fd5b6000601f19601f8301169050919050565b6112788161106c565b811461128357600080fd5b50565b61128f816110aa565b811461129a57600080fd5b5056fea2646970667358221220426250b1036f06cba446c7f7bc8c17b24be2ac77f59f6986a0d19cbaf72d8b7764736f6c63430008000033",
  "linkReferences": {},
  "deployedLinkReferences": {}
}